:020000040800F2
:10000000A0040020C10100081F110008DF0F000834
:100010001D110008CD0200081B130008000000009D
:100020000000000000000000000000002311000894
:10003000CF0200080000000021110008251100086F
:10004000DB010008DB010008DB010008DB01000820
:10005000DB010008DB010008DB010008DB01000810
:10006000DB010008DB010008DB010008DB01000800
:10007000DB010008DB010008DB010008DB010008F0
:10008000DB010008DB010008DB010008DB010008E0
:10009000DB010008DB010008DB010008DB010008D0
:1000A000DB010008DB010008DB010008DB010008C0
:1000B000D1110008DD110008DB010008DB01000898
:1000C000DB010008DB010008DB010008DB010008A0
:1000D000DB010008DB010008DB010008DB01000890
:1000E000DB010008DB010008DB010008DB01000880
:1000F000DB010008DB010008DB010008DB01000870
:10010000DB010008DB010008DB010008DB0100085F
:10011000DB010008DB010008DB010008DB0100084F
:10012000DB010008DB010008DB010008DB0100083F
:10013000DB010008DB010008DB010008DB0100082F
:10014000DB010008DB010008DB010008DB0100081F
:10015000DB010008DB010008DB010008DB0100080F
:10016000DB010008DB010008DB010008DB010008FF
:10017000DB010008DB010008DB01000800000000D3
:10018000DB010008DB010008DB010008DB010008DF
:10019000DB010008DB010008DB010008DB010008CF
:1001A000DB010008DB010008DB010008DFF80CD0F0
:1001B00000F07AF8004800475D130008A004002012
:1001C0000648804706480047FEE7FEE7FEE7FEE7F1
:1001D000FEE7FEE7FEE7FEE7FEE7FEE7C1110008E7
:1001E000AD0100082DE9F05F0546002092469B46D0
:1001F00088460646814640241BE02846414647463D
:10020000224600F041F853465A46C01A914110D395
:1002100011461846224600F028F82D1A67EB01080F
:100220004F4622460120002100F01FF817EB00097D
:100230004E41201EA4F10104DFDC484631462A4627
:100240004346BDE8F09FD2B201E000F8012B491E01
:10025000FBD270470022F6E710B513460A46044663
:100260001946FFF7F0FF204610BD202A04DB203A94
:1002700000FA02F1002070479140C2F1200320FAF9
:1002800003F3194390407047202A04DB203A21FAF7
:1002900002F00021704721FA02F3D040C2F120029F
:1002A0009140084319467047064C074D06E0E06848
:1002B00040F0010394E8070098471034AC42F6D3AD
:1002C000FFF778FF98130008B8130008FEE770479F
:1002D00072B6FEE72DE9F84FDFF8F8A100220124FD
:1002E0000AF1040B03254FF00F090BF1040E00BFB8
:1002F0000B6804FA02F63340B34270D10F7907F06D
:100300000307012F01D0022F16D187684FEA420858
:1003100005FA08FC27EA0C07D1F80CC00CFA08FC17
:100320004CEA070CC0F808C04768B7430E79C6F31B
:10033000001696403E4346600E79F643B6070AD053
:10034000C7684FEA420C05FA0CF6B7438E6806FA06
:100350000CF63E43C6600E7906F00306022E10D15D
:10036000D60800EB8608D8F8206057074FEAD76C0C
:1003700009FA0CF7BE430F6907FA0CF73743C8F8C0
:10038000207006684FEA420C05FA0CF7BE430F795D
:1003900007F0030707FA0CF7374307604E6816F4B7
:1003A000403F1CD04C4E376847F480473760366872
:1003B00022F0030706F480460096484E07EB060C31
:1003C000DCF8086897073F0F09FA07F826EA0806DD
:1003D000DFF80C81404503D14FF0000841E072E0A6
:1003E000DFF80081404502D14FF0010839E0DFF825
:1003F000F880404502D14FF0020832E0DFF8EC808F
:10040000404502D14FF003082BE0DFF8E48040457F
:1004100002D14FF0040824E0DFF8D880404502D133
:100420004FF005081DE0DFF8D080404502D14FF0C5
:10043000060816E0DFF8C480404502D14FF00708F7
:100440000FE0DFF8BC80404502D14FF0080808E01B
:10045000DFF8B080404502D14FF0090801E04FF0CD
:100460000A0808FA07F848EA0608CCF80888DAF813
:1004700000605746D1F804C09E435FEACC3C00D5EB
:100480001E433E60DBF800605F46D1F804C09E4327
:100490005FEA8C3C00D51E433E60DEF80060774684
:1004A000D1F804C09E435FEACC2C00D51E433E60C9
:1004B000084F0C373E68D1F804C09E435FEA8C2C8D
:1004C00000D51E433E60521C102AFFF411AFBDE858
:1004D000F88F0000003C01404438024000300140E9
:1004E000000002400004024000080240000C0240EC
:1004F000001002400014024000180240001C02409C
:100500000020024000240240426921EA02030A401E
:1005100043EA0241816170470AB181617047090471
:10052000FBE70000014880687047000000000020E1
:100530000248816802781144816070470000002001
:100540000B4810B5016841F400710160016841F485
:1005500080610160016841F480710160032000F056
:100560006FF8002000F006F800F024F8002010BD1D
:10057000003C024070B50D4D04464FF47A71287866
:10058000B1FBF0F00A490968B1FBF0F000F0ECFAB9
:1005900048B9102C07D200222146501E00F030F836
:1005A00000206C6070BD012070BD000000000020C4
:1005B0000C0000200A4808B5016841F48041016040
:1005C000006800F4804000900548001F016841F079
:1005D00080510160006800F08050009008BD00006C
:1005E00044380240002809DB00F01F02012191403D
:1005F0004009800000F1E020C0F8001170470000C1
:10060000F0B40E4B1B680C46C3F30223C3F107057D
:10061000042D00D90425191D072901D2002300E06B
:10062000DB1E012606FA05F1491E214099409E4035
:10063000761E16403143F0BC00F070BE0CED00E0B9
:10064000064900F0070208684FF6FF03184040EA29
:100650000220034A10430860704700000CED00E0E0
:100660000000FA052DE9F0470E46050065D0DFF8D9
:100670001481D8F80000F7B200F00F00B04207D2A2
:1006800088F80070D8F8000000F00F00B04254D194
:1006900028683D4C810712D5400703D5206840F4F7
:1006A000E05020602878000703D5206840F46040BF
:1006B00020602068A96820F0F000084320602878B6
:1006C000C0072DD0304968680839012812D00228A7
:1006D00013D0032811D00968890700292DDA216871
:1006E00021F0030101432160FFF71CFF814641F225
:1006F000883A0EE009688903EFE709688901ECE7A9
:10070000FFF710FFA0EB0901514502D90320BDE816
:10071000F0872068696800F00C00B0EB810FEFD122
:10072000D8F80010404601F00F01B14207D9077018
:10073000006800F00F00B04201D00120E7E7287800
:10074000400705D52068E96820F4E05008432060A0
:100750002878000706D52068296920F4604040EA1F
:10076000C100206000F018F82168084AC1F30311A5
:10077000515CC8400649086006480068FFF7FAFE69
:100780000020C4E7003C02400838024088130008FB
:100790000C00002004000020154810B5006810F07F
:1007A0000C02144813D01449042A0FD0082A0ED181
:1007B0000F4C241F2268236802F03F025B0207D51A
:1007C0002068C0F38810A0FB010106E0084610BDB8
:1007D0002168C1F38811A1FB00010023FFF702FD8E
:1007E0002168C1F30141491C4900B0FBF1F010BD83
:1007F000083802400024F40040787D012DE9F84FCC
:1008000004006ED02078DFF84C93C007A9F10405EE
:100810004AD009F104000168C1F38101012908D01F
:100820000068C0F3810002280AD1D9F80000400214
:1008300006D52868800337D560680028E1D033E00A
:100840006068B0F5803F10D0B0F5A02F286810D0B8
:1008500020F480302860286820F4802028606068B8
:10086000A8B1FFF75FFE06460DE0286840F480302F
:10087000F4E740F480202860F7E700BFFFF752FE5E
:10088000801B642873D828688003F7D50CE0FFF735
:1008900049FE064605E000BFFFF744FE801B6428C2
:1008A000F0D828688003F7D42078DFF8AC8280077E
:1008B0004FF0000A3ED5A748001D016811F00C0F4B
:1008C00008D00068C0F3810002280BD1D9F80000DD
:1008D000400207D42868800716D5E068012800D1B7
:1008E00012E033E1E068B8B10120C8F80000FFF77A
:1008F00019FE064605E000BFFFF714FE801B022824
:10090000C0D828688007F7D52868216920F0F8004A
:1009100040EAC10028600DE0C8F800A0FFF702FE21
:10092000064604E0FFF7FEFD801B02281FD828685A
:100930008007F7D42078000722D5864F8748616961
:10094000703771B101210160FFF7ECFD064604E04C
:10095000FFF7E8FD801B022809D838688007F7D523
:100960000EE0C0F800A0FFF7DDFD064605E082E0DE
:10097000FFF7D8FD801B02287DD838688007F7D4A0
:100980002078400768D5DFF8CCB100270BF13C0B8D
:10099000DBF80000C0000BD4DBF8001041F0805100
:1009A000CBF80010DBF80000012700F08050009029
:1009B0006B4E3068C00510D4306840F480703060F1
:1009C000FFF7B0FD009005E0FFF7ACFD0099401A7D
:1009D000022850D83068C005F6D55E4EA0686C3647
:1009E00001280FD00528306810D020F001003060B9
:1009F000306820F004003060A068B8B1FFF792FDC5
:100A000000900FE0306840F00100F4E740F004008F
:100A10003060F7E7FFF786FD0099411A41F2883010
:100A2000814266D830688007F4D50EE0FFF77AFD82
:100A3000009007E0FFF776FD0099411A41F28830F7
:100A4000814256D830688007F4D42FB1DBF800100B
:100A500021F08051CBF80010A069C8B33D49091DB1
:100A60000968C1F3810102294AD00228504607D003
:100A7000C8F8600000E03CE0FFF754FD04463BE0AE
:100A80004746C8F86000FFF74DFD064605E000BF89
:100A9000FFF748FD801B02282BD828688001F7D477
:100AA000D4E907010843A16A2E4A490802EB014133
:100AB000626A41EA8211084394F82C1040EA01610D
:100AC000C9F8001001203866FFF72CFD044606E047
:100AD0003EE000BFFFF726FD001B022809D828686A
:100AE0008001F7D534E000BFFFF71CFD001B022892
:100AF00002D90320BDE8F88F28688001F4D427E0EC
:100B00000128F7D0D9F80000E26900F48001914291
:100B10001CD1226A00F03F01914217D147F6C07103
:100B2000626A0140B1EB821F10D1A26A4FF0FF331D
:100B300000F4403103EB5202B1EB024F06D194F8BE
:100B40002C1000F07060B0EB016F01D00120D1E7F4
:100B50000020CFE70438024000004742800E4742A1
:100B6000007000400000FFFF10B5401EB0F1807F14
:100B700001D3012010BD4FF0E02460610F21601708
:100B800000F0CCFB0020A06107202061002010BDF8
:100B90007047704770B590F83C20012A32D001248C
:100BA00080F83C40022280F83D2003685A689D6826
:100BB00022F070060A6832435A60134B02689A4268
:100BC00014D0B2F1804F11D0104B9A420ED0104B7E
:100BD0009A420BD00F4B9A4208D00F4B9A4205D045
:100BE0000E4B9A4202D00E4B9A4204D1496825F02E
:100BF00080031943916080F83D40002180F83C104B
:100C0000084670BD022070BD000001400004004095
:100C100000080040000C004000040140004001407A
:100C20000018004010B5040003D094F83D0010B146
:100C300007E0012010BD002084F83C00204600F0B1
:100C40001FF8022084F83D00211D206800F0CCFA36
:100C5000012084F8460084F83E0084F83F0084F8C0
:100C6000400084F8410084F8420084F8430084F88E
:100C7000440084F8450084F83D00002010BD0000C9
:100C800008B501681448B1F1804F14D0134A91425D
:100C900020D1016841F0020101600068002200F0EB
:100CA0000200009011461D20FFF7AAFC1D20BDE8A0
:100CB0000840FFF797BC016841F00101016000683E
:100CC000002200F00100009011461C20FFF798FC64
:100CD0001C20ECE708BD0000403802400004004042
:100CE00090F83D10012901D001207047022180F8C1
:100CF0003D100168CA6842F00102CA6000681149EB
:100D0000884214D0B0F1804F11D00F4988420ED0E4
:100D10000E4988420BD00E49884208D00D498842BE
:100D200005D00D49884202D00C49884204D181681F
:100D300001F00701062903D0016841F001010160BB
:100D400000207047000001400004004000080040FF
:100D5000000C004000040140004001400018004029
:100D600070B5044690F83C000025012817D00126F4
:100D700084F83C60022084F83D002068826822F0FC
:100D8000770222F47F4282600868502838D00DDC58
:100D900020284FD005DC90B3102811D14AE0022062
:100DA00070BD302846D040280AD13BE060282FD0C3
:100DB00070280DD0B0F5805F03D0B0F5005F12D081
:100DC000012584F83D60002084F83C00284670BD71
:100DD000CB68D1E90121206800F06AFA20688168B7
:100DE00041F0770109E0CB68D1E90121206800F0EA
:100DF0005FFA2068816841F480418160E1E719E091
:100E0000CA684968206800F065FA5021206806E049
:100E1000CA684968206800F06EFA6021206800F016
:100E200051FACEE7CA684968206800F053FA4021B9
:100E30002068F4E7226801461046F0E7704770B575
:100E40000446006801694FF00005C943890715D4BD
:100E5000C168C943890711D4E91E016101202077C7
:100E6000206880698007204602D0FFF7E7FF04E092
:100E700000F098F8204600F096F825772068016980
:100E8000C943490717D4C168C943490713D46FF050
:100E900004010161022020772068806910F4407FFE
:100EA000204602D0FFF7CAFF04E000F07BF820469E
:100EB00000F079F8257720680169C943090716D43D
:100EC000C168C943090712D46FF008010161042009
:100ED00020772068C0698007204602D0FFF7AEFF68
:100EE00004E000F05FF8204600F05DF82577206808
:100EF0000169C943C90617D4C168C943C90613D4D7
:100F00006FF010010161082020772068C06910F49B
:100F1000407F204602D0FFF791FF04E000F042F846
:100F2000204600F040F8257720680169C943C907C9
:100F300008D1C168C943C90704D1891E016120468F
:100F400000F032F820680169C943090609D4C16874
:100F5000C943090605D46FF0800101612046FFF7FF
:100F600017FE20680169C943490609D4C168C9430D
:100F7000490605D46FF040010161204600F02EF8CB
:100F800020680169C94389060BD4C168C943890631
:100F900007D46FF0200101612046BDE87040FFF7E3
:100FA000F8BD70BD7047704770B504460068094DC4
:100FB000B0F1804F03D102212846FFF7A5FA064978
:100FC0002068884205D12846BDE870400121FFF71E
:100FD0009BBA70BD00040240000400407047FEE769
:100FE00030B587B014216846FFF734F9154800245E
:100FF000016841F080010160016801F08001059104
:10100000016841F002010160016801F002010591EF
:10101000016841F00101016000680B4D00F0010022
:101020000590002203212846FFF776FA032000905E
:101030000120CDE90104694628460394FFF74AF9E7
:1010400007B030BD303802400004024010B586B011
:1010500000241648009401940294039404944FF0E1
:101060008041059401605321C0E901141049C0E991
:1010700003148461FFF7D6FD08B1FFF729F94FF497
:101080008050009069460948FFF76AFE08B1FFF7F3
:101090001FF9049404A905480594FFF77BFD002877
:1010A00001D0FFF715F906B010BD000010000020B8
:1010B0003F0D030010B586B000241748009401943A
:1010C00002940394049413490594016042F2CF0101
:1010D000C0E9011442F20F71C0E903148461FFF703
:1010E000A1FD08B1FFF7F4F84FF480500090694675
:1010F0000948FFF735FE08B1FFF7EAF8049404A9A0
:1011000005480594FFF746FD002801D0FFF7E0F8F9
:1011100006B010BD0004004058000020FEE7FEE7C6
:1011200070477047FFF704BA30B593B03021684676
:10113000FFF790F814210CA8FFF78CF81E48002543
:10114000016841F080510160006800F0805011900A
:101150001A48016841F4404101600068022400F42B
:101160004040119001200090000401908001CDE9E1
:101170000640192008904FF4A870CDE90904042016
:101180000B906846FFF73AFB08B172B6FEE70CA970
:101190000F2081E831004FF4A0500F904FF48050A1
:1011A000109005210CA8FFF75DFA002801D072B657
:1011B000FEE713B030BD0000403802400070004030
:1011C0000248016841F470010160704788ED00E059
:1011D0000148FFF734BE0000100000200148FFF76F
:1011E0002EBE000058000020F0B50268254C264DA8
:1011F000264E274F274B4FF0804CA04209D0604528
:1012000007D0A84205D0B04203D0B84201D09842DE
:1012100004D122F0700E4A6842EA0E02A0421BD0AE
:10122000604519D0A84217D0B04215D0B84213D0AB
:10123000984211D0184DA8420ED0184DA8420BD09C
:10124000174DA84208D0174DA84205D0164DA84208
:1012500002D0164DA84203D122F44075CA682A4331
:101260004D6922F080022A4302608A68C2620A68DD
:101270008262A04201D0984201D109690163012133
:101280004161F0BD00000140000400400008004042
:10129000000C0040000401400040014000440140B7
:1012A0000048014000180040001C004000200040A1
:1012B00010B5846842EA032224F47F440A4322439F
:1012C000826010BD826822F070020A4342F007017A
:1012D0008160704710B5036A046A24F00104046257
:1012E000846924F0F00444EA021423F00A020A4359
:1012F0008461026210BD10B5036A23F0100303621B
:101300008369046A23F4704343EA023224F0A003A1
:1013100043EA01118261016210BDFEE70907090E6F
:10132000002804DB00F1E02080F80014704700F092
:101330000F0000F1E02080F8141D704702E008C89B
:10134000121F08C1002AFAD170477047002001E03F
:1013500001C1121F002AFBD170470000FFF7F0F80F
:10136000FFF7E2FEFFF73CFEFFF770FEFFF7A2FE7D
:101370000348FFF7B5FC0348FFF7B2FCFEE70000A7
:1013800010000020580000200000000000000000B5
:101390000102030406070809B81300080000002032
:1013A000100000003C130008C813000810000020C3
:1013B000900400004C130008010000001000000021
:0813C000000000000024F4000D
:04000005080001AD41
:00000001FF
